:1000000012C02CC02BC02AC029C028C027C026C0BF
:1000100025C024C023C022C021C020C01FC01EC0D4
:100020001DC01CC01BC011241FBECFE5D4E0DEBF25
:10003000CDBF10E0A0E6B0E0ECE8F0E002C0059033
:100040000D92A036B107D9F710E0A0E6B0E001C0EC
:100050001D92A036B107E1F702D016C0D1CF8FEFC5
:1000600087BB18BA11BA82BB86E08EBD8CB59DB530
:100070000A9711F41DBC1CBC8CB59DB588BB879933
:0C008000F5CF1DBC1CBCF2CFF894FFCFE4
:00000001FF
